{
  "contractName": "ExerciceSolution",
  "abi": [
    {
      "inputs": [
        {
          "internalType": "string",
          "name": "name",
          "type": "string"
        },
        {
          "internalType": "string",
          "name": "symbol",
          "type": "string"
        }
      ],
      "stateMutability": "nonpayable",
      "type": "constructor"
    },
    {
      "anonymous": false,
      "inputs": [
        {
          "indexed": true,
          "internalType": "address",
          "name": "owner",
          "type": "address"
        },
        {
          "indexed": true,
          "internalType": "address",
          "name": "approved",
          "type": "address"
        },
        {
          "indexed": true,
          "internalType": "uint256",
          "name": "tokenId",
          "type": "uint256"
        }
      ],
      "name": "Approval",
      "type": "event"
    },
    {
      "anonymous": false,
      "inputs": [
        {
          "indexed": true,
          "internalType": "address",
          "name": "owner",
          "type": "address"
        },
        {
          "indexed": true,
          "internalType": "address",
          "name": "operator",
          "type": "address"
        },
        {
          "indexed": false,
          "internalType": "bool",
          "name": "approved",
          "type": "bool"
        }
      ],
      "name": "ApprovalForAll",
      "type": "event"
    },
    {
      "anonymous": false,
      "inputs": [
        {
          "indexed": true,
          "internalType": "address",
          "name": "from",
          "type": "address"
        },
        {
          "indexed": true,
          "internalType": "address",
          "name": "to",
          "type": "address"
        },
        {
          "indexed": true,
          "internalType": "uint256",
          "name": "tokenId",
          "type": "uint256"
        }
      ],
      "name": "Transfer",
      "type": "event"
    },
    {
      "inputs": [
        {
          "internalType": "address",
          "name": "to",
          "type": "address"
        },
        {
          "internalType": "uint256",
          "name": "tokenId",
          "type": "uint256"
        }
      ],
      "name": "approve",
      "outputs": [],
      "stateMutability": "nonpayable",
      "type": "function"
    },
    {
      "inputs": [
        {
          "internalType": "address",
          "name": "owner",
          "type": "address"
        }
      ],
      "name": "balanceOf",
      "outputs": [
        {
          "internalType": "uint256",
          "name": "",
          "type": "uint256"
        }
      ],
      "stateMutability": "view",
      "type": "function",
      "constant": true
    },
    {
      "inputs": [],
      "name": "baseURI",
      "outputs": [
        {
          "internalType": "string",
          "name": "",
          "type": "string"
        }
      ],
      "stateMutability": "view",
      "type": "function",
      "constant": true
    },
    {
      "inputs": [
        {
          "internalType": "address",
          "name": "",
          "type": "address"
        }
      ],
      "name": "breederslist",
      "outputs": [
        {
          "internalType": "bool",
          "name": "",
          "type": "bool"
        }
      ],
      "stateMutability": "view",
      "type": "function",
      "constant": true
    },
    {
      "inputs": [
        {
          "internalType": "uint256",
          "name": "",
          "type": "uint256"
        }
      ],
      "name": "fatherslist",
      "outputs": [
        {
          "internalType": "uint256",
          "name": "",
          "type": "uint256"
        }
      ],
      "stateMutability": "view",
      "type": "function",
      "constant": true
    },
    {
      "inputs": [
        {
          "internalType": "uint256",
          "name": "",
          "type": "uint256"
        }
      ],
      "name": "forsalelist",
      "outputs": [
        {
          "internalType": "bool",
          "name": "",
          "type": "bool"
        }
      ],
      "stateMutability": "view",
      "type": "function",
      "constant": true
    },
    {
      "inputs": [
        {
          "internalType": "uint256",
          "name": "tokenId",
          "type": "uint256"
        }
      ],
      "name": "getApproved",
      "outputs": [
        {
          "internalType": "address",
          "name": "",
          "type": "address"
        }
      ],
      "stateMutability": "view",
      "type": "function",
      "constant": true
    },
    {
      "inputs": [
        {
          "internalType": "uint256",
          "name": "",
          "type": "uint256"
        }
      ],
      "name": "idlist",
      "outputs": [
        {
          "internalType": "address",
          "name": "",
          "type": "address"
        }
      ],
      "stateMutability": "view",
      "type": "function",
      "constant": true
    },
    {
      "inputs": [
        {
          "internalType": "address",
          "name": "owner",
          "type": "address"
        },
        {
          "internalType": "address",
          "name": "operator",
          "type": "address"
        }
      ],
      "name": "isApprovedForAll",
      "outputs": [
        {
          "internalType": "bool",
          "name": "",
          "type": "bool"
        }
      ],
      "stateMutability": "view",
      "type": "function",
      "constant": true
    },
    {
      "inputs": [
        {
          "internalType": "uint256",
          "name": "",
          "type": "uint256"
        }
      ],
      "name": "legslist",
      "outputs": [
        {
          "internalType": "uint256",
          "name": "",
          "type": "uint256"
        }
      ],
      "stateMutability": "view",
      "type": "function",
      "constant": true
    },
    {
      "inputs": [
        {
          "internalType": "uint256",
          "name": "",
          "type": "uint256"
        }
      ],
      "name": "motherslist",
      "outputs": [
        {
          "internalType": "uint256",
          "name": "",
          "type": "uint256"
        }
      ],
      "stateMutability": "view",
      "type": "function",
      "constant": true
    },
    {
      "inputs": [],
      "name": "name",
      "outputs": [
        {
          "internalType": "string",
          "name": "",
          "type": "string"
        }
      ],
      "stateMutability": "view",
      "type": "function",
      "constant": true
    },
    {
      "inputs": [
        {
          "internalType": "uint256",
          "name": "",
          "type": "uint256"
        }
      ],
      "name": "namelist",
      "outputs": [
        {
          "internalType": "string",
          "name": "",
          "type": "string"
        }
      ],
      "stateMutability": "view",
      "type": "function",
      "constant": true
    },
    {
      "inputs": [
        {
          "internalType": "uint256",
          "name": "tokenId",
          "type": "uint256"
        }
      ],
      "name": "ownerOf",
      "outputs": [
        {
          "internalType": "address",
          "name": "",
          "type": "address"
        }
      ],
      "stateMutability": "view",
      "type": "function",
      "constant": true
    },
    {
      "inputs": [
        {
          "internalType": "uint256",
          "name": "",
          "type": "uint256"
        }
      ],
      "name": "priceslist",
      "outputs": [
        {
          "internalType": "uint256",
          "name": "",
          "type": "uint256"
        }
      ],
      "stateMutability": "view",
      "type": "function",
      "constant": true
    },
    {
      "inputs": [
        {
          "internalType": "uint256",
          "name": "",
          "type": "uint256"
        }
      ],
      "name": "reproductionlist",
      "outputs": [
        {
          "internalType": "bool",
          "name": "",
          "type": "bool"
        }
      ],
      "stateMutability": "view",
      "type": "function",
      "constant": true
    },
    {
      "inputs": [
        {
          "internalType": "uint256",
          "name": "",
          "type": "uint256"
        }
      ],
      "name": "reproductionpriceslist",
      "outputs": [
        {
          "internalType": "uint256",
          "name": "",
          "type": "uint256"
        }
      ],
      "stateMutability": "view",
      "type": "function",
      "constant": true
    },
    {
      "inputs": [
        {
          "internalType": "address",
          "name": "from",
          "type": "address"
        },
        {
          "internalType": "address",
          "name": "to",
          "type": "address"
        },
        {
          "internalType": "uint256",
          "name": "tokenId",
          "type": "uint256"
        }
      ],
      "name": "safeTransferFrom",
      "outputs": [],
      "stateMutability": "nonpayable",
      "type": "function"
    },
    {
      "inputs": [
        {
          "internalType": "address",
          "name": "from",
          "type": "address"
        },
        {
          "internalType": "address",
          "name": "to",
          "type": "address"
        },
        {
          "internalType": "uint256",
          "name": "tokenId",
          "type": "uint256"
        },
        {
          "internalType": "bytes",
          "name": "_data",
          "type": "bytes"
        }
      ],
      "name": "safeTransferFrom",
      "outputs": [],
      "stateMutability": "nonpayable",
      "type": "function"
    },
    {
      "inputs": [
        {
          "internalType": "address",
          "name": "operator",
          "type": "address"
        },
        {
          "internalType": "bool",
          "name": "approved",
          "type": "bool"
        }
      ],
      "name": "setApprovalForAll",
      "outputs": [],
      "stateMutability": "nonpayable",
      "type": "function"
    },
    {
      "inputs": [
        {
          "internalType": "uint256",
          "name": "",
          "type": "uint256"
        }
      ],
      "name": "sexlist",
      "outputs": [
        {
          "internalType": "uint256",
          "name": "",
          "type": "uint256"
        }
      ],
      "stateMutability": "view",
      "type": "function",
      "constant": true
    },
    {
      "inputs": [
        {
          "internalType": "bytes4",
          "name": "interfaceId",
          "type": "bytes4"
        }
      ],
      "name": "supportsInterface",
      "outputs": [
        {
          "internalType": "bool",
          "name": "",
          "type": "bool"
        }
      ],
      "stateMutability": "view",
      "type": "function",
      "constant": true
    },
    {
      "inputs": [],
      "name": "symbol",
      "outputs": [
        {
          "internalType": "string",
          "name": "",
          "type": "string"
        }
      ],
      "stateMutability": "view",
      "type": "function",
      "constant": true
    },
    {
      "inputs": [
        {
          "internalType": "uint256",
          "name": "index",
          "type": "uint256"
        }
      ],
      "name": "tokenByIndex",
      "outputs": [
        {
          "internalType": "uint256",
          "name": "",
          "type": "uint256"
        }
      ],
      "stateMutability": "view",
      "type": "function",
      "constant": true
    },
    {
      "inputs": [
        {
          "internalType": "address",
          "name": "owner",
          "type": "address"
        },
        {
          "internalType": "uint256",
          "name": "index",
          "type": "uint256"
        }
      ],
      "name": "tokenOfOwnerByIndex",
      "outputs": [
        {
          "internalType": "uint256",
          "name": "",
          "type": "uint256"
        }
      ],
      "stateMutability": "view",
      "type": "function",
      "constant": true
    },
    {
      "inputs": [
        {
          "internalType": "uint256",
          "name": "tokenId",
          "type": "uint256"
        }
      ],
      "name": "tokenURI",
      "outputs": [
        {
          "internalType": "string",
          "name": "",
          "type": "string"
        }
      ],
      "stateMutability": "view",
      "type": "function",
      "constant": true
    },
    {
      "inputs": [],
      "name": "totalSupply",
      "outputs": [
        {
          "internalType": "uint256",
          "name": "",
          "type": "uint256"
        }
      ],
      "stateMutability": "view",
      "type": "function",
      "constant": true
    },
    {
      "inputs": [
        {
          "internalType": "address",
          "name": "from",
          "type": "address"
        },
        {
          "internalType": "address",
          "name": "to",
          "type": "address"
        },
        {
          "internalType": "uint256",
          "name": "tokenId",
          "type": "uint256"
        }
      ],
      "name": "transferFrom",
      "outputs": [],
      "stateMutability": "nonpayable",
      "type": "function"
    },
    {
      "inputs": [
        {
          "internalType": "uint256",
          "name": "",
          "type": "uint256"
        }
      ],
      "name": "wingslist",
      "outputs": [
        {
          "internalType": "bool",
          "name": "",
          "type": "bool"
        }
      ],
      "stateMutability": "view",
      "type": "function",
      "constant": true
    },
    {
      "inputs": [
        {
          "internalType": "address",
          "name": "a",
          "type": "address"
        }
      ],
      "name": "sendToken",
      "outputs": [],
      "stateMutability": "nonpayable",
      "type": "function"
    },
    {
      "inputs": [
        {
          "internalType": "address",
          "name": "account",
          "type": "address"
        }
      ],
      "name": "isBreeder",
      "outputs": [
        {
          "internalType": "bool",
          "name": "",
          "type": "bool"
        }
      ],
      "stateMutability": "nonpayable",
      "type": "function"
    },
    {
      "inputs": [],
      "name": "registrationPrice",
      "outputs": [
        {
          "internalType": "uint256",
          "name": "",
          "type": "uint256"
        }
      ],
      "stateMutability": "nonpayable",
      "type": "function"
    },
    {
      "inputs": [
        {
          "internalType": "address",
          "name": "a",
          "type": "address"
        }
      ],
      "name": "registerBreeder",
      "outputs": [],
      "stateMutability": "nonpayable",
      "type": "function"
    },
    {
      "inputs": [],
      "name": "registerMeAsBreeder",
      "outputs": [],
      "stateMutability": "payable",
      "type": "function",
      "payable": true
    },
    {
      "inputs": [
        {
          "internalType": "uint256",
          "name": "sex",
          "type": "uint256"
        },
        {
          "internalType": "uint256",
          "name": "legs",
          "type": "uint256"
        },
        {
          "internalType": "bool",
          "name": "wings",
          "type": "bool"
        },
        {
          "internalType": "string",
          "name": "name",
          "type": "string"
        }
      ],
      "name": "declareAnimal",
      "outputs": [
        {
          "internalType": "uint256",
          "name": "",
          "type": "uint256"
        }
      ],
      "stateMutability": "nonpayable",
      "type": "function"
    },
    {
      "inputs": [
        {
          "internalType": "uint256",
          "name": "animalNumber",
          "type": "uint256"
        }
      ],
      "name": "getAnimalCharacteristics",
      "outputs": [
        {
          "internalType": "string",
          "name": "_name",
          "type": "string"
        },
        {
          "internalType": "bool",
          "name": "_wings",
          "type": "bool"
        },
        {
          "internalType": "uint256",
          "name": "_legs",
          "type": "uint256"
        },
        {
          "internalType": "uint256",
          "name": "_sex",
          "type": "uint256"
        }
      ],
      "stateMutability": "nonpayable",
      "type": "function"
    },
    {
      "inputs": [
        {
          "internalType": "uint256",
          "name": "animalNumber",
          "type": "uint256"
        }
      ],
      "name": "declareDeadAnimal",
      "outputs": [],
      "stateMutability": "nonpayable",
      "type": "function"
    },
    {
      "inputs": [
        {
          "internalType": "uint256",
          "name": "animalNumber",
          "type": "uint256"
        }
      ],
      "name": "isAnimalForSale",
      "outputs": [
        {
          "internalType": "bool",
          "name": "",
          "type": "bool"
        }
      ],
      "stateMutability": "view",
      "type": "function",
      "constant": true
    },
    {
      "inputs": [
        {
          "internalType": "uint256",
          "name": "animalNumber",
          "type": "uint256"
        }
      ],
      "name": "animalPrice",
      "outputs": [
        {
          "internalType": "uint256",
          "name": "",
          "type": "uint256"
        }
      ],
      "stateMutability": "view",
      "type": "function",
      "constant": true
    },
    {
      "inputs": [
        {
          "internalType": "uint256",
          "name": "animalNumber",
          "type": "uint256"
        },
        {
          "internalType": "uint256",
          "name": "price",
          "type": "uint256"
        }
      ],
      "name": "offerForSale",
      "outputs": [],
      "stateMutability": "nonpayable",
      "type": "function"
    },
    {
      "inputs": [
        {
          "internalType": "uint256",
          "name": "animalNumber",
          "type": "uint256"
        }
      ],
      "name": "buyAnimal",
      "outputs": [],
      "stateMutability": "payable",
      "type": "function",
      "payable": true
    },
    {
      "inputs": [
        {
          "internalType": "uint256",
          "name": "sex",
          "type": "uint256"
        },
        {
          "internalType": "uint256",
          "name": "legs",
          "type": "uint256"
        },
        {
          "internalType": "bool",
          "name": "wings",
          "type": "bool"
        },
        {
          "internalType": "string",
          "name": "name",
          "type": "string"
        },
        {
          "internalType": "uint256",
          "name": "parent1",
          "type": "uint256"
        },
        {
          "internalType": "uint256",
          "name": "parent2",
          "type": "uint256"
        }
      ],
      "name": "declareAnimalWithParents",
      "outputs": [
        {
          "internalType": "uint256",
          "name": "",
          "type": "uint256"
        }
      ],
      "stateMutability": "nonpayable",
      "type": "function"
    },
    {
      "inputs": [
        {
          "internalType": "uint256",
          "name": "animalNumber",
          "type": "uint256"
        }
      ],
      "name": "getParents",
      "outputs": [
        {
          "internalType": "uint256",
          "name": "parent1",
          "type": "uint256"
        },
        {
          "internalType": "uint256",
          "name": "parent2",
          "type": "uint256"
        }
      ],
      "stateMutability": "nonpayable",
      "type": "function"
    },
    {
      "inputs": [
        {
          "internalType": "uint256",
          "name": "animalNumber",
          "type": "uint256"
        }
      ],
      "name": "canReproduce",
      "outputs": [
        {
          "internalType": "bool",
          "name": "",
          "type": "bool"
        }
      ],
      "stateMutability": "nonpayable",
      "type": "function"
    },
    {
      "inputs": [
        {
          "internalType": "uint256",
          "name": "animalNumber",
          "type": "uint256"
        }
      ],
      "name": "reproductionPrice",
      "outputs": [
        {
          "internalType": "uint256",
          "name": "",
          "type": "uint256"
        }
      ],
      "stateMutability": "view",
      "type": "function",
      "constant": true
    },
    {
      "inputs": [
        {
          "internalType": "uint256",
          "name": "animalNumber",
          "type": "uint256"
        },
        {
          "internalType": "uint256",
          "name": "price",
          "type": "uint256"
        }
      ],
      "name": "offerForReproduction",
      "outputs": [
        {
          "internalType": "uint256",
          "name": "",
          "type": "uint256"
        }
      ],
      "stateMutability": "nonpayable",
      "type": "function"
    }
  ],
  "bytecode": "0x60806040523480156200001157600080fd5b506040516200488738038062004887833981810160405260408110156200003757600080fd5b81019080805160405193929190846401000000008211156200005857600080fd5b838201915060208201858111156200006f57600080fd5b82518660018202830111640100000000821117156200008d57600080fd5b8083526020830192505050908051906020019080838360005b83811015620000c3578082015181840152602081019050620000a6565b50505050905090810190601f168015620000f15780820380516001836020036101000a031916815260200191505b50604052602001805160405193929190846401000000008211156200011557600080fd5b838201915060208201858111156200012c57600080fd5b82518660018202830111640100000000821117156200014a57600080fd5b8083526020830192505050908051906020019080838360005b838110156200018057808201518184015260208101905062000163565b50505050905090810190601f168015620001ae5780820380516001836020036101000a031916815260200191505b506040525050508181620001cf6301ffc9a760e01b6200025b60201b60201c565b8160069080519060200190620001e792919062000364565b5080600790805190602001906200020092919062000364565b50620002196380ac58cd60e01b6200025b60201b60201c565b62000231635b5e139f60e01b6200025b60201b60201c565b6200024963780e9d6360e01b6200025b60201b60201c565b50506001600a81905550505062000413565b63ffffffff60e01b817bffffffffffffffffffffffffffffffffffffffffffffffffffffffff19161415620002f8576040517f08c379a000000000000000000000000000000000000000000000000000000000815260040180806020018281038252601c8152602001807f4552433136353a20696e76616c696420696e746572666163652069640000000081525060200191505060405180910390fd5b6001600080837bffffffffffffffffffffffffffffffffffffffffffffffffffffffff19167bffffffffffffffffffffffffffffffffffffffffffffffffffffffff1916815260200190815260200160002060006101000a81548160ff02191690831515021790555050565b828054600181600116156101000203166002900490600052602060002090601f016020900481019282601f10620003a757805160ff1916838001178555620003d8565b82800160010185558215620003d8579182015b82811115620003d7578251825591602001919060010190620003ba565b5b509050620003e79190620003eb565b5090565b6200041091905b808211156200040c576000816000905550600101620003f2565b5090565b90565b61446480620004236000396000f3fe60806040526004361061027d5760003560e01c80636c0360eb1161014f578063b86c8681116100c1578063dbfcf6501161007a578063dbfcf65014611307578063dfa9e9bc14611356578063e83eb6b4146113bf578063e985e9c514611473578063ec897772146114fc578063fef25da6146115375761027d565b8063b86c868114610fe5578063b88d4fde14611034578063c575c23814611146578063c5f51f7314611197578063c7b9cb0b146111ea578063c87b56dd146112535761027d565b806395d89b411161011357806395d89b4114610d30578063a0c32c8f14610dc0578063a22cb46514610e19578063ad61279814610e76578063af3144cd14610ec5578063b75e075014610f185761027d565b80636c0360eb14610ad55780636c76affa14610b6557806370a0823114610bb857806377386df314610c1d578063929c13e314610c625761027d565b80632a4672b2116101f3578063476fd474116101ac578063476fd474146108c95780634abda8c81461091a5780634f6ccce71461096d5780635e478509146109bc578063620d40e014610a0b5780636352211e14610a5a5761027d565b80632a4672b21461067d5780632f745c59146106cc57806332b0f3761461073b5780633573dbd1146107f557806341d30bae1461084457806342842e0e1461084e5761027d565b806318160ddd1161024557806318160ddd146104ad5780631a14e94a146104d8578063216586581461050657806323b872dd14610531578063242a0087146105ac578063299955b0146106025761027d565b806301ffc9a71461028257806306fdde03146102f4578063081812fc14610384578063095ea7b3146103ff57806312d652761461045a575b600080fd5b34801561028e57600080fd5b506102da600480360360208110156102a557600080fd5b8101908080357bffffffffffffffffffffffffffffffffffffffffffffffffffffffff19169060200190929190505050611586565b604051808215151515815260200191505060405180910390f35b34801561030057600080fd5b506103096115ed565b6040518080602001828103825283818151815260200191508051906020019080838360005b8381101561034957808201518184015260208101905061032e565b50505050905090810190601f1680156103765780820380516001836020036101000a031916815260200191505b509250505060405180910390f35b34801561039057600080fd5b506103bd600480360360208110156103a757600080fd5b810190808035906020019092919050505061168f565b604051808273ffffffffffffffffffffffffffffffffffffffff1673ffffffffffffffffffffffffffffffffffffffff16815260200191505060405180910390f35b34801561040b57600080fd5b506104586004803603604081101561042257600080fd5b81019080803573ffffffffffffffffffffffffffffffffffffffff1690602001909291908035906020019092919050505061172a565b005b34801561046657600080fd5b506104936004803603602081101561047d57600080fd5b810190808035906020019092919050505061186e565b604051808215151515815260200191505060405180910390f35b3480156104b957600080fd5b506104c261188e565b6040518082815260200191505060405180910390f35b610504600480360360208110156104ee57600080fd5b810190808035906020019092919050505061189f565b005b34801561051257600080fd5b5061051b6119c8565b6040518082815260200191505060405180910390f35b34801561053d57600080fd5b506105aa6004803603606081101561055457600080fd5b81019080803573ffffffffffffffffffffffffffffffffffffffff169060200190929190803573ffffffffffffffffffffffffffffffffffffffff169060200190929190803590602001909291905050506119d1565b005b3480156105b857600080fd5b506105e5600480360360208110156105cf57600080fd5b8101908080359060200190929190505050611a47565b604051808381526020018281526020019250505060405180910390f35b34801561060e57600080fd5b5061063b6004803603602081101561062557600080fd5b8101908080359060200190929190505050611a7b565b604051808273ffffffffffffffffffffffffffffffffffffffff1673ffffffffffffffffffffffffffffffffffffffff16815260200191505060405180910390f35b34801561068957600080fd5b506106b6600480360360208110156106a057600080fd5b8101908080359060200190929190505050611aae565b6040518082815260200191505060405180910390f35b3480156106d857600080fd5b50610725600480360360408110156106ef57600080fd5b81019080803573ffffffffffffffffffffffffffffffffffffffff16906020019092919080359060200190929190505050611acb565b6040518082815260200191505060405180910390f35b34801561074757600080fd5b506107df6004803603608081101561075e57600080fd5b8101908080359060200190929190803590602001909291908035151590602001909291908035906020019064010000000081111561079b57600080fd5b8201836020820111156107ad57600080fd5b803590602001918460018302840111640100000000831117156107cf57600080fd5b9091929391929390505050611b26565b6040518082815260200191505060405180910390f35b34801561080157600080fd5b5061082e6004803603602081101561081857600080fd5b8101908080359060200190929190505050611c28565b6040518082815260200191505060405180910390f35b61084c611c45565b005b34801561085a57600080fd5b506108c76004803603606081101561087157600080fd5b81019080803573ffffffffffffffffffffffffffffffffffffffff169060200190929190803573ffffffffffffffffffffffffffffffffffffffff16906020019092919080359060200190929190505050611c9f565b005b3480156108d557600080fd5b50610918600480360360208110156108ec57600080fd5b81019080803573ffffffffffffffffffffffffffffffffffffffff169060200190929190505050611cbf565b005b34801561092657600080fd5b506109536004803603602081101561093d57600080fd5b8101908080359060200190929190505050611d1a565b604051808215151515815260200191505060405180910390f35b34801561097957600080fd5b506109a66004803603602081101561099057600080fd5b8101908080359060200190929190505050611d44565b6040518082815260200191505060405180910390f35b3480156109c857600080fd5b506109f5600480360360208110156109df57600080fd5b8101908080359060200190929190505050611d67565b6040518082815260200191505060405180910390f35b348015610a1757600080fd5b50610a4460048036036020811015610a2e57600080fd5b8101908080359060200190929190505050611d7f565b6040518082815260200191505060405180910390f35b348015610a6657600080fd5b50610a9360048036036020811015610a7d57600080fd5b8101908080359060200190929190505050611d97565b604051808273ffffffffffffffffffffffffffffffffffffffff1673ffffffffffffffffffffffffffffffffffffffff16815260200191505060405180910390f35b348015610ae157600080fd5b50610aea611dce565b6040518080602001828103825283818151815260200191508051906020019080838360005b83811015610b2a578082015181840152602081019050610b0f565b50505050905090810190601f168015610b575780820380516001836020036101000a031916815260200191505b509250505060405180910390f35b348015610b7157600080fd5b50610b9e60048036036020811015610b8857600080fd5b8101908080359060200190929190505050611e70565b604051808215151515815260200191505060405180910390f35b348015610bc457600080fd5b50610c0760048036036020811015610bdb57600080fd5b81019080803573ffffffffffffffffffffffffffffffffffffffff169060200190929190505050611e90565b6040518082815260200191505060405180910390f35b348015610c2957600080fd5b50610c6060048036036040811015610c4057600080fd5b810190808035906020019092919080359060200190929190505050611f65565b005b348015610c6e57600080fd5b50610d1a600480360360c0811015610c8557600080fd5b81019080803590602001909291908035906020019092919080351515906020019092919080359060200190640100000000811115610cc257600080fd5b820183602082011115610cd457600080fd5b80359060200191846001830284011164010000000083111715610cf657600080fd5b90919293919293908035906020019092919080359060200190929190505050611fad565b6040518082815260200191505060405180910390f35b348015610d3c57600080fd5b50610d456120e5565b6040518080602001828103825283818151815260200191508051906020019080838360005b83811015610d85578082015181840152602081019050610d6a565b50505050905090810190601f168015610db25780820380516001836020036101000a031916815260200191505b509250505060405180910390f35b348015610dcc57600080fd5b50610e0360048036036040811015610de357600080fd5b810190808035906020019092919080359060200190929190505050612187565b6040518082815260200191505060405180910390f35b348015610e2557600080fd5b50610e7460048036036040811015610e3c57600080fd5b81019080803573ffffffffffffffffffffffffffffffffffffffff169060200190929190803515159060200190929190505050612216565b005b348015610e8257600080fd5b50610eaf60048036036020811015610e9957600080fd5b81019080803590602001909291905050506123ce565b6040518082815260200191505060405180910390f35b348015610ed157600080fd5b50610efe60048036036020811015610ee857600080fd5b81019080803590602001909291905050506123e6565b604051808215151515815260200191505060405180910390f35b348015610f2457600080fd5b50610f5160048036036020811015610f3b57600080fd5b8101908080359060200190929190505050612406565b604051808060200185151515158152602001848152602001838152602001828103825286818151815260200191508051906020019080838360005b83811015610fa7578082015181840152602081019050610f8c565b50505050905090810190601f168015610fd45780820380516001836020036101000a031916815260200191505b509550505050505060405180910390f35b348015610ff157600080fd5b5061101e6004803603602081101561100857600080fd5b8101908080359060200190929190505050612514565b6040518082815260200191505060405180910390f35b34801561104057600080fd5b506111446004803603608081101561105757600080fd5b81019080803573ffffffffffffffffffffffffffffffffffffffff169060200190929190803573ffffffffffffffffffffffffffffffffffffffff16906020019092919080359060200190929190803590602001906401000000008111156110be57600080fd5b8201836020820111156110d057600080fd5b803590602001918460018302840111640100000000831117156110f257600080fd5b91908080601f016020809104026020016040519081016040528093929190818152602001838380828437600081840152601f19601f82011690508083019250505050505050919291929050505061252c565b005b34801561115257600080fd5b506111956004803603602081101561116957600080fd5b81019080803573ffffffffffffffffffffffffffffffffffffffff1690602001909291905050506125a4565b005b3480156111a357600080fd5b506111d0600480360360208110156111ba57600080fd5b81019080803590602001909291905050506125b3565b604051808215151515815260200191505060405180910390f35b3480156111f657600080fd5b506112396004803603602081101561120d57600080fd5b81019080803573ffffffffffffffffffffffffffffffffffffffff1690602001909291905050506125dd565b604051808215151515815260200191505060405180910390f35b34801561125f57600080fd5b5061128c6004803603602081101561127657600080fd5b8101908080359060200190929190505050612633565b6040518080602001828103825283818151815260200191508051906020019080838360005b838110156112cc5780820151818401526020810190506112b1565b50505050905090810190601f1680156112f95780820380516001836020036101000a031916815260200191505b509250505060405180910390f35b34801561131357600080fd5b506113406004803603602081101561132a57600080fd5b8101908080359060200190929190505050612904565b6040518082815260200191505060405180910390f35b34801561136257600080fd5b506113a56004803603602081101561137957600080fd5b81019080803573ffffffffffffffffffffffffffffffffffffffff16906020019092919050505061291c565b604051808215151515815260200191505060405180910390f35b3480156113cb57600080fd5b506113f8600480360360208110156113e257600080fd5b810190808035906020019092919050505061293c565b6040518080602001828103825283818151815260200191508051906020019080838360005b8381101561143857808201518184015260208101905061141d565b50505050905090810190601f1680156114655780820380516001836020036101000a031916815260200191505b509250505060405180910390f35b34801561147f57600080fd5b506114e26004803603604081101561149657600080fd5b81019080803573ffffffffffffffffffffffffffffffffffffffff169060200190929190803573ffffffffffffffffffffffffffffffffffffffff1690602001909291905050506129ec565b604051808215151515815260200191505060405180910390f35b34801561150857600080fd5b506115356004803603602081101561151f57600080fd5b8101908080359060200190929190505050612a80565b005b34801561154357600080fd5b506115706004803603602081101561155a57600080fd5b8101908080359060200190929190505050612b97565b6040518082815260200191505060405180910390f35b6000806000837bffffffffffffffffffffffffffffffffffffffffffffffffffffffff19167bffffffffffffffffffffffffffffffffffffffffffffffffffffffff1916815260200190815260200160002060009054906101000a900460ff169050919050565b606060068054600181600116156101000203166002900480601f0160208091040260200160405190810160405280929190818152602001828054600181600116156101000203166002900480156116855780601f1061165a57610100808354040283529160200191611685565b820191906000526020600020905b81548152906001019060200180831161166857829003601f168201915b5050505050905090565b600061169a82612baf565b6116ef576040517f08c379a000000000000000000000000000000000000000000000000000000000815260040180806020018281038252602c815260200180614359602c913960400191505060405180910390fd5b6004600083815260200190815260200160002060009054906101000a900473ffffffffffffffffffffffffffffffffffffffff169050919050565b600061173582611d97565b90508073ffffffffffffffffffffffffffffffffffffffff168373ffffffffffffffffffffffffffffffffffffffff1614156117bc576040517f08c379a00000000000000000000000000000000000000000000000000000000081526004018080602001828103825260218152602001806143dd6021913960400191505060405180910390fd5b8073ffffffffffffffffffffffffffffffffffffffff166117db612bcc565b73ffffffffffffffffffffffffffffffffffffffff16148061180a575061180981611804612bcc565b6129ec565b5b61185f576040517f08c379a00000000000000000000000000000000000000000000000000000000081526004018080602001828103825260388152602001806142ac6038913960400191505060405180910390fd5b6118698383612bd4565b505050565b600c6020528060005260406000206000915054906101000a900460ff1681565b600061189a6002612c8d565b905090565b6011600082815260200190815260200160002060009054906101000a900460ff166118c957600080fd5b6118dc6118d582611d97565b3383612ca2565b600060606118e983611d97565b73ffffffffffffffffffffffffffffffffffffffff163460405180600001905060006040518083038185875af1925050503d8060008114611946576040519150601f19603f3d011682016040523d82523d6000602084013e61194b565b606091505b5091509150816119c3576040517f08c379a00000000000000000000000000000000000000000000000000000000081526004018080602001828103825260188152602001807f4661696c656420746f207472616e73666572204574686572000000000000000081525060200191505060405180910390fd5b505050565b60006001905090565b6119e26119dc612bcc565b82612ee5565b611a37576040517f08c379a00000000000000000000000000000000000000000000000000000000081526004018080602001828103825260318152602001806143fe6031913960400191505060405180910390fd5b611a42838383612ca2565b505050565b6000806013600084815260200190815260200160002054601460008581526020019081526020016000205491509150915091565b60106020528060005260406000206000915054906101000a900473ffffffffffffffffffffffffffffffffffffffff1681565b600060166000838152602001908152602001600020549050919050565b6000611b1e82600160008673ffffffffffffffffffffffffffffffffffffffff1673ffffffffffffffffffffffffffffffffffffffff168152602001908152602001600020612fd990919063ffffffff16565b905092915050565b60006001600a5401600a819055508282600b6000600a5481526020019081526020016000209190611b58929190614074565b5083600c6000600a54815260200190815260200160002060006101000a81548160ff02191690831515021790555084600d6000600a5481526020019081526020016000208190555085600e6000600a548152602001908152602001600020819055503360106000600a54815260200190815260200160002060006101000a81548173ffffffffffffffffffffffffffffffffffffffff021916908373ffffffffffffffffffffffffffffffffffffffff160217905550611c1a33600a54612ff3565b600a54905095945050505050565b600060126000838152602001908152602001600020549050919050565b6001600f60003373ffffffffffffffffffffffffffffffffffffffff1673ffffffffffffffffffffffffffffffffffffffff16815260200190815260200160002060006101000a81548160ff021916908315150217905550565b611cba8383836040518060200160405280600081525061252c565b505050565b6001600f60008373ffffffffffffffffffffffffffffffffffffffff1673ffffffffffffffffffffffffffffffffffffffff16815260200190815260200160002060006101000a81548160ff02191690831515021790555050565b60006015600083815260200190815260200160002060009054906101000a900460ff169050919050565b600080611d5b8360026131e790919063ffffffff16565b50905080915050919050565b600d6020528060005260406000206000915090505481565b60126020528060005260406000206000915090505481565b6000611dc78260405180606001604052806029815260200161430e6029913960026132169092919063ffffffff16565b9050919050565b606060098054600181600116156101000203166002900480601f016020809104026020016040519081016040528092919081815260200182805460018160011615610100020316600290048015611e665780601f10611e3b57610100808354040283529160200191611e66565b820191906000526020600020905b815481529060010190602001808311611e4957829003601f168201915b5050505050905090565b60116020528060005260406000206000915054906101000a900460ff1681565b60008073ffffffffffffffffffffffffffffffffffffffff168273ffffffffffffffffffffffffffffffffffffffff161415611f17576040517f08c379a000000000000000000000000000000000000000000000000000000000815260040180806020018281038252602a8152602001806142e4602a913960400191505060405180910390fd5b611f5e600160008473ffffffffffffffffffffffffffffffffffffffff1673ffffffffffffffffffffffffffffffffffffffff168152602001908152602001600020613235565b9050919050565b60016011600084815260200190815260200160002060006101000a81548160ff0219169083151502179055508060126000848152602001908152602001600020819055505050565b60006001600a5401600a819055508260136000600a548152602001908152602001600020819055508160146000600a548152602001908152602001600020819055508484600b6000600a5481526020019081526020016000209190612013929190614074565b5085600c6000600a54815260200190815260200160002060006101000a81548160ff02191690831515021790555086600d6000600a5481526020019081526020016000208190555087600e6000600a548152602001908152602001600020819055503360106000600a54815260200190815260200160002060006101000a81548173ffffffffffffffffffffffffffffffffffffffff021916908373ffffffffffffffffffffffffffffffffffffffff1602179055506120d533600a54612ff3565b600a549050979650505050505050565b606060078054600181600116156101000203166002900480601f01602080910402602001604051908101604052809291908181526020018280546001816001161561010002031660029004801561217d5780601f106121525761010080835404028352916020019161217d565b820191906000526020600020905b81548152906001019060200180831161216057829003601f168201915b5050505050905090565b600061219283611d97565b73ffffffffffffffffffffffffffffffffffffffff163373ffffffffffffffffffffffffffffffffffffffff16146121c957600080fd5b60016015600085815260200190815260200160002060006101000a81548160ff02191690831515021790555081601660008581526020019081526020016000208190555082905092915050565b61221e612bcc565b73ffffffffffffffffffffffffffffffffffffffff168273ffffffffffffffffffffffffffffffffffffffff1614156122bf576040517f08c379a00000000000000000000000000000000000000000000000000000000081526004018080602001828103825260198152602001807f4552433732313a20617070726f766520746f2063616c6c65720000000000000081525060200191505060405180910390fd5b80600560006122cc612bcc565b73ffffffffffffffffffffffffffffffffffffffff1673ffffffffffffffffffffffffffffffffffffffff16815260200190815260200160002060008473ffffffffffffffffffffffffffffffffffffffff1673ffffffffffffffffffffffffffffffffffffffff16815260200190815260200160002060006101000a81548160ff0219169083151502179055508173ffffffffffffffffffffffffffffffffffffffff16612379612bcc565b73ffffffffffffffffffffffffffffffffffffffff167f17307eab39ab6107e8899845ad3d59bd9653f200f220920489ca2b5937696c3183604051808215151515815260200191505060405180910390a35050565b600e6020528060005260406000206000915090505481565b60156020528060005260406000206000915054906101000a900460ff1681565b60606000806000600b6000868152602001908152602001600020600c600087815260200190815260200160002060009054906101000a900460ff16600d600088815260200190815260200160002054600e600089815260200190815260200160002054838054600181600116156101000203166002900480601f0160208091040260200160405190810160405280929190818152602001828054600181600116156101000203166002900480156124fe5780601f106124d3576101008083540402835291602001916124fe565b820191906000526020600020905b8154815290600101906020018083116124e157829003601f168201915b5050505050935093509350935093509193509193565b60136020528060005260406000206000915090505481565b61253d612537612bcc565b83612ee5565b612592576040517f08c379a00000000000000000000000000000000000000000000000000000000081526004018080602001828103825260318152602001806143fe6031913960400191505060405180910390fd5b61259e8484848461324a565b50505050565b6125b081600a54612ff3565b50565b60006011600083815260200190815260200160002060009054906101000a900460ff169050919050565b6000600f60008373ffffffffffffffffffffffffffffffffffffffff1673ffffffffffffffffffffffffffffffffffffffff16815260200190815260200160002060009054906101000a900460ff169050919050565b606061263e82612baf565b612693576040517f08c379a000000000000000000000000000000000000000000000000000000000815260040180806020018281038252602f8152602001806143ae602f913960400191505060405180910390fd5b6060600860008481526020019081526020016000208054600181600116156101000203166002900480601f01602080910402602001604051908101604052809291908181526020018280546001816001161561010002031660029004801561273c5780601f106127115761010080835404028352916020019161273c565b820191906000526020600020905b81548152906001019060200180831161271f57829003601f168201915b50505050509050606061274d611dce565b90506000815114156127635781925050506128ff565b6000825111156128345780826040516020018083805190602001908083835b602083106127a55780518252602082019150602081019050602083039250612782565b6001836020036101000a03801982511681845116808217855250505050505090500182805190602001908083835b602083106127f657805182526020820191506020810190506020830392506127d3565b6001836020036101000a03801982511681845116808217855250505050505090500192505050604051602081830303815290604052925050506128ff565b8061283e856132bc565b6040516020018083805190602001908083835b602083106128745780518252602082019150602081019050602083039250612851565b6001836020036101000a03801982511681845116808217855250505050505090500182805190602001908083835b602083106128c557805182526020820191506020810190506020830392506128a2565b6001836020036101000a03801982511681845116808217855250505050505090500192505050604051602081830303815290604052925050505b919050565b60166020528060005260406000206000915090505481565b600f6020528060005260406000206000915054906101000a900460ff1681565b600b6020528060005260406000206000915090508054600181600116156101000203166002900480601f0160208091040260200160405190810160405280929190818152602001828054600181600116156101000203166002900480156129e45780601f106129b9576101008083540402835291602001916129e4565b820191906000526020600020905b8154815290600101906020018083116129c757829003601f168201915b505050505081565b6000600560008473ffffffffffffffffffffffffffffffffffffffff1673ffffffffffffffffffffffffffffffffffffffff16815260200190815260200160002060008373ffffffffffffffffffffffffffffffffffffffff1673ffffffffffffffffffffffffffffffffffffffff16815260200190815260200160002060009054906101000a900460ff16905092915050565b612a8981611d97565b73ffffffffffffffffffffffffffffffffffffffff163373ffffffffffffffffffffffffffffffffffffffff1614612ac057600080fd5b612ac9816133ec565b60405180602001604052806000815250600b60008381526020019081526020016000209080519060200190612aff9291906140f4565b506000600c600083815260200190815260200160002060006101000a81548160ff0219169083151502179055506000600d6000838152602001908152602001600020819055506000600e6000838152602001908152602001600020819055506010600082815260200190815260200160002060006101000a81549073ffffffffffffffffffffffffffffffffffffffff021916905550565b60146020528060005260406000206000915090505481565b6000612bc582600261352690919063ffffffff16565b9050919050565b600033905090565b816004600083815260200190815260200160002060006101000a81548173ffffffffffffffffffffffffffffffffffffffff021916908373ffffffffffffffffffffffffffffffffffffffff160217905550808273ffffffffffffffffffffffffffffffffffffffff16612c4783611d97565b73ffffffffffffffffffffffffffffffffffffffff167f8c5be1e5ebec7d5bd14f71427d1e84f3dd0314c0f7b2291e5b200ac8c7c3b92560405160405180910390a45050565b6000612c9b82600001613540565b9050919050565b8273ffffffffffffffffffffffffffffffffffffffff16612cc282611d97565b73ffffffffffffffffffffffffffffffffffffffff1614612d2e576040517f08c379a00000000000000000000000000000000000000000000000000000000081526004018080602001828103825260298152602001806143856029913960400191505060405180910390fd5b600073ffffffffffffffffffffffffffffffffffffffff168273ffffffffffffffffffffffffffffffffffffffff161415612db4576040517f08c379a00000000000000000000000000000000000000000000000000000000081526004018080602001828103825260248152602001806142366024913960400191505060405180910390fd5b612dbf838383613551565b612dca600082612bd4565b612e1b81600160008673ffffffffffffffffffffffffffffffffffffffff1673ffffffffffffffffffffffffffffffffffffffff16815260200190815260200160002061355690919063ffffffff16565b50612e6d81600160008573ffffffffffffffffffffffffffffffffffffffff1673ffffffffffffffffffffffffffffffffffffffff16815260200190815260200160002061357090919063ffffffff16565b50612e848183600261358a9092919063ffffffff16565b50808273ffffffffffffffffffffffffffffffffffffffff168473ffffffffffffffffffffffffffffffffffffffff167fddf252ad1be2c89b69c2b068fc378daa952ba7f163c4a11628f55a4df523b3ef60405160405180910390a4505050565b6000612ef082612baf565b612f45576040517f08c379a000000000000000000000000000000000000000000000000000000000815260040180806020018281038252602c815260200180614280602c913960400191505060405180910390fd5b6000612f5083611d97565b90508073ffffffffffffffffffffffffffffffffffffffff168473ffffffffffffffffffffffffffffffffffffffff161480612fbf57508373ffffffffffffffffffffffffffffffffffffffff16612fa78461168f565b73ffffffffffffffffffffffffffffffffffffffff16145b80612fd05750612fcf81856129ec565b5b91505092915050565b6000612fe883600001836135bf565b60001c905092915050565b600073ffffffffffffffffffffffffffffffffffffffff168273ffffffffffffffffffffffffffffffffffffffff161415613096576040517f08c379a00000000000000000000000000000000000000000000000000000000081526004018080602001828103825260208152602001807f4552433732313a206d696e7420746f20746865207a65726f206164647265737381525060200191505060405180910390fd5b61309f81612baf565b15613112576040517f08c379a000000000000000000000000000000000000000000000000000000000815260040180806020018281038252601c8152602001807f4552433732313a20746f6b656e20616c7265616479206d696e7465640000000081525060200191505060405180910390fd5b61311e60008383613551565b61316f81600160008573ffffffffffffffffffffffffffffffffffffffff1673ffffffffffffffffffffffffffffffffffffffff16815260200190815260200160002061357090919063ffffffff16565b506131868183600261358a9092919063ffffffff16565b50808273ffffffffffffffffffffffffffffffffffffffff16600073ffffffffffffffffffffffffffffffffffffffff167fddf252ad1be2c89b69c2b068fc378daa952ba7f163c4a11628f55a4df523b3ef60405160405180910390a45050565b6000806000806131fa8660000186613642565b915091508160001c8160001c8090509350935050509250929050565b6000613229846000018460001b846136db565b60001c90509392505050565b6000613243826000016137d1565b9050919050565b613255848484612ca2565b613261848484846137e2565b6132b6576040517f08c379a00000000000000000000000000000000000000000000000000000000081526004018080602001828103825260328152602001806142046032913960400191505060405180910390fd5b50505050565b60606000821415613304576040518060400160405280600181526020017f300000000000000000000000000000000000000000000000000000000000000081525090506133e7565b600082905060005b6000821461332e578080600101915050600a828161332657fe5b04915061330c565b6060816040519080825280601f01601f1916602001820160405280156133635781602001600182028038833980820191505090505b50905060006001830390508593505b600084146133df57600a848161338457fe5b0660300160f81b8282806001900393508151811061339e57fe5b60200101907effffffffffffffffffffffffffffffffffffffffffffffffffffffffffffff1916908160001a905350600a84816133d757fe5b049350613372565b819450505050505b919050565b60006133f782611d97565b905061340581600084613551565b613410600083612bd4565b6000600860008481526020019081526020016000208054600181600116156101000203166002900490501461345f5760086000838152602001908152602001600020600061345e9190614174565b5b6134b082600160008473ffffffffffffffffffffffffffffffffffffffff1673ffffffffffffffffffffffffffffffffffffffff16815260200190815260200160002061355690919063ffffffff16565b506134c5826002613a2790919063ffffffff16565b5081600073ffffffffffffffffffffffffffffffffffffffff168273ffffffffffffffffffffffffffffffffffffffff167fddf252ad1be2c89b69c2b068fc378daa952ba7f163c4a11628f55a4df523b3ef60405160405180910390a45050565b6000613538836000018360001b613a41565b905092915050565b600081600001805490509050919050565b505050565b6000613568836000018360001b613a64565b905092915050565b6000613582836000018360001b613b4c565b905092915050565b60006135b6846000018460001b8473ffffffffffffffffffffffffffffffffffffffff1660001b613bbc565b90509392505050565b600081836000018054905011613620576040517f08c379a00000000000000000000000000000000000000000000000000000000081526004018080602001828103825260228152602001806141e26022913960400191505060405180910390fd5b82600001828154811061362f57fe5b9060005260206000200154905092915050565b600080828460000180549050116136a4576040517f08c379a00000000000000000000000000000000000000000000000000000000081526004018080602001828103825260228152602001806143376022913960400191505060405180910390fd5b60008460000184815481106136b557fe5b906000526020600020906002020190508060000154816001015492509250509250929050565b600080846001016000858152602001908152602001600020549050600081141583906137a2576040517f08c379a00000000000000000000000000000000000000000000000000000000081526004018080602001828103825283818151815260200191508051906020019080838360005b8381101561376757808201518184015260208101905061374c565b50505050905090810190601f1680156137945780820380516001836020036101000a031916815260200191505b509250505060405180910390fd5b508460000160018203815481106137b557fe5b9060005260206000209060020201600101549150509392505050565b600081600001805490509050919050565b60006138038473ffffffffffffffffffffffffffffffffffffffff16613c98565b6138105760019050613a1f565b60606139a663150b7a0260e01b613825612bcc565b888787604051602401808573ffffffffffffffffffffffffffffffffffffffff1673ffffffffffffffffffffffffffffffffffffffff1681526020018473ffffffffffffffffffffffffffffffffffffffff1673ffffffffffffffffffffffffffffffffffffffff16815260200183815260200180602001828103825283818151815260200191508051906020019080838360005b838110156138d55780820151818401526020810190506138ba565b50505050905090810190601f1680156139025780820380516001836020036101000a031916815260200191505b5095505050505050604051602081830303815290604052907bffffffffffffffffffffffffffffffffffffffffffffffffffffffff19166020820180517bffffffffffffffffffffffffffffffffffffffffffffffffffffffff8381831617835250505050604051806060016040528060328152602001614204603291398773ffffffffffffffffffffffffffffffffffffffff16613cab9092919063ffffffff16565b905060008180602001905160208110156139bf57600080fd5b8101908080519060200190929190505050905063150b7a0260e01b7bffffffffffffffffffffffffffffffffffffffffffffffffffffffff1916817bffffffffffffffffffffffffffffffffffffffffffffffffffffffff191614925050505b949350505050565b6000613a39836000018360001b613cc3565b905092915050565b600080836001016000848152602001908152602001600020541415905092915050565b60008083600101600084815260200190815260200160002054905060008114613b405760006001820390506000600186600001805490500390506000866000018281548110613aaf57fe5b9060005260206000200154905080876000018481548110613acc57fe5b9060005260206000200181905550600183018760010160008381526020019081526020016000208190555086600001805480613b0457fe5b60019003818190600052602060002001600090559055866001016000878152602001908152602001600020600090556001945050505050613b46565b60009150505b92915050565b6000613b588383613ddc565b613bb1578260000182908060018154018082558091505060019003906000526020600020016000909190919091505582600001805490508360010160008481526020019081526020016000208190555060019050613bb6565b600090505b92915050565b6000808460010160008581526020019081526020016000205490506000811415613c6357846000016040518060400160405280868152602001858152509080600181540180825580915050600190039060005260206000209060020201600090919091909150600082015181600001556020820151816001015550508460000180549050856001016000868152602001908152602001600020819055506001915050613c91565b82856000016001830381548110613c7657fe5b90600052602060002090600202016001018190555060009150505b9392505050565b600080823b905060008111915050919050565b6060613cba8484600085613dff565b90509392505050565b60008083600101600084815260200190815260200160002054905060008114613dd05760006001820390506000600186600001805490500390506000866000018281548110613d0e57fe5b9060005260206000209060020201905080876000018481548110613d2e57fe5b9060005260206000209060020201600082015481600001556001820154816001015590505060018301876001016000836000015481526020019081526020016000208190555086600001805480613d8157fe5b6001900381819060005260206000209060020201600080820160009055600182016000905550509055866001016000878152602001908152602001600020600090556001945050505050613dd6565b60009150505b92915050565b600080836001016000848152602001908152602001600020541415905092915050565b606082471015613e5a576040517f08c379a000000000000000000000000000000000000000000000000000000000815260040180806020018281038252602681526020018061425a6026913960400191505060405180910390fd5b613e6385613c98565b613ed5576040517f08c379a000000000000000000000000000000000000000000000000000000000815260040180806020018281038252601d8152602001807f416464726573733a2063616c6c20746f206e6f6e2d636f6e747261637400000081525060200191505060405180910390fd5b600060608673ffffffffffffffffffffffffffffffffffffffff1685876040518082805190602001908083835b60208310613f255780518252602082019150602081019050602083039250613f02565b6001836020036101000a03801982511681845116808217855250505050505090500191505060006040518083038185875af1925050503d8060008114613f87576040519150601f19603f3d011682016040523d82523d6000602084013e613f8c565b606091505b5091509150613f9c828286613fa8565b92505050949350505050565b60608315613fb85782905061406d565b600083511115613fcb5782518084602001fd5b816040517f08c379a00000000000000000000000000000000000000000000000000000000081526004018080602001828103825283818151815260200191508051906020019080838360005b83811015614032578082015181840152602081019050614017565b50505050905090810190601f16801561405f5780820380516001836020036101000a031916815260200191505b509250505060405180910390fd5b9392505050565b828054600181600116156101000203166002900490600052602060002090601f016020900481019282601f106140b557803560ff19168380011785556140e3565b828001600101855582156140e3579182015b828111156140e25782358255916020019190600101906140c7565b5b5090506140f091906141bc565b5090565b828054600181600116156101000203166002900490600052602060002090601f016020900481019282601f1061413557805160ff1916838001178555614163565b82800160010185558215614163579182015b82811115614162578251825591602001919060010190614147565b5b50905061417091906141bc565b5090565b50805460018160011615610100020316600290046000825580601f1061419a57506141b9565b601f0160209004906000526020600020908101906141b891906141bc565b5b50565b6141de91905b808211156141da5760008160009055506001016141c2565b5090565b9056fe456e756d657261626c655365743a20696e646578206f7574206f6620626f756e64734552433732313a207472616e7366657220746f206e6f6e20455243373231526563656976657220696d706c656d656e7465724552433732313a207472616e7366657220746f20746865207a65726f2061646472657373416464726573733a20696e73756666696369656e742062616c616e636520666f722063616c6c4552433732313a206f70657261746f7220717565727920666f72206e6f6e6578697374656e7420746f6b656e4552433732313a20617070726f76652063616c6c6572206973206e6f74206f776e6572206e6f7220617070726f76656420666f7220616c6c4552433732313a2062616c616e636520717565727920666f7220746865207a65726f20616464726573734552433732313a206f776e657220717565727920666f72206e6f6e6578697374656e7420746f6b656e456e756d657261626c654d61703a20696e646578206f7574206f6620626f756e64734552433732313a20617070726f76656420717565727920666f72206e6f6e6578697374656e7420746f6b656e4552433732313a207472616e73666572206f6620746f6b656e2074686174206973206e6f74206f776e4552433732314d657461646174613a2055524920717565727920666f72206e6f6e6578697374656e7420746f6b656e4552433732313a20617070726f76616c20746f2063757272656e74206f776e65724552433732313a207472616e736665722063616c6c6572206973206e6f74206f776e6572206e6f7220617070726f766564a2646970667358221220f393d5f7d16fdc6a25d53a20428feef7b3f6ca42d725e215cf6e2d39ce2eb68d64736f6c63430006020033",
  "source": "pragma solidity ^0.6.0;\nimport \"@openzeppelin/contracts/token/ERC721/ERC721.sol\";\n//raccourci pour commenter ctrl :\n\ncontract ExerciceSolution is ERC721\n{\n\t\n\tuint256 private idanimal;\n\tmapping(uint256 => string) public namelist;\n    mapping(uint256 => bool) public wingslist;\n    mapping(uint256 => uint) public legslist;\n    mapping(uint256 => uint) public sexlist;\n\tmapping(address => bool) public breederslist;\n\tmapping(uint => address) public idlist;\n\tmapping(uint => bool) public forsalelist;\n\tmapping(uint => uint) public priceslist;\n\tmapping(uint => uint) public fatherslist;\n\tmapping(uint => uint) public motherslist;\n\tmapping(uint => bool) public reproductionlist;\n\tmapping(uint => uint) public reproductionpriceslist;\n\n\tconstructor(string memory name, string memory symbol) public ERC721(name, symbol) {\n\t\tidanimal = 1;\n\t}\n\n\tfunction sendToken(address a) external\n\t{\n\t\t_mint(a,idanimal);\n\t}\n\n\tfunction isBreeder(address account) external returns (bool)\n\t{\n\t\treturn breederslist[account];\n\t}\n\n\tfunction registrationPrice() external returns (uint256)\n\t{\n\t\treturn 1;\n\t}\n\n\tfunction registerBreeder(address a) external\n\t{\n\t\tbreederslist[a] = true;\n\t}\n\n\tfunction registerMeAsBreeder() external payable\n\t{\n\t\tbreederslist[msg.sender]=true;\n\t}\n\t\n\tfunction declareAnimal(uint sex, uint legs, bool wings, string calldata name) external returns (uint256)\n    {\n        idanimal = idanimal + 1;\n        namelist[idanimal]=name;\n        wingslist[idanimal]=wings;\n        legslist[idanimal]=legs;\n        sexlist[idanimal]=sex;\n\t\tidlist[idanimal]=msg.sender;\n\t\t//dfinir  l'origine le prix de l'animal  0.\n\t\t//priceslist[idanimal]=0;\n        _mint(msg.sender,idanimal);\n        return idanimal;\n    }\n\n\t\n\n\tfunction getAnimalCharacteristics(uint256 animalNumber) external returns (string memory _name, bool _wings, uint _legs, uint _sex)\n\t{\n\t\treturn (namelist[animalNumber],wingslist[animalNumber],legslist[animalNumber],sexlist[animalNumber]);\n\t}\n\n\tfunction declareDeadAnimal(uint animalNumber) external\n\t{\n\t\trequire(msg.sender == ownerOf(animalNumber));\n\t\t_burn(animalNumber);\n\t\tnamelist[animalNumber] = \"\";\n\t\twingslist[animalNumber] = false;\n\t\tlegslist[animalNumber] = 0;\n\t\tsexlist[animalNumber] = 0;\n\t\tdelete idlist[animalNumber];\n\t\t\n\t}\n\n\t\n\n\tfunction isAnimalForSale(uint animalNumber) external view returns (bool)\n\t{return forsalelist[animalNumber];}\n\n\tfunction animalPrice(uint animalNumber) external view returns (uint256)\n\t{return priceslist[animalNumber];}\n\n\tfunction offerForSale(uint animalNumber, uint price) external\n\t{\n\t\tforsalelist[animalNumber] = true;\n\t\tpriceslist[animalNumber] = price;\n\n\t}\n\n\tfunction buyAnimal(uint animalNumber) external payable\n\t{\n\t\t//require(idlist[animalNumber] != msg.sender);\n\t\trequire(forsalelist[animalNumber]);\n\t\t_transfer(ownerOf(animalNumber), msg.sender, animalNumber);\n\t\t(bool sent, bytes memory data) = ownerOf(animalNumber).call{value: msg.value}(\"\");\n        require(sent, \"Failed to transfer Ether\");\n\t}\n\n\tfunction declareAnimalWithParents(uint sex, uint legs, bool wings, string calldata name, uint parent1, uint parent2) external returns (uint256)\n\t{\n\t\tidanimal = idanimal + 1;\n\t\tfatherslist[idanimal] = parent1;\n\t\tmotherslist[idanimal] = parent2;\n        namelist[idanimal]=name;\n        wingslist[idanimal]=wings;\n        legslist[idanimal]=legs;\n        sexlist[idanimal]=sex;\n\t\tidlist[idanimal]=msg.sender;\n\t\t_mint(msg.sender,idanimal);\n\t\treturn idanimal;\n\n\t}\n\n\tfunction getParents(uint animalNumber) external returns (uint parent1,uint parent2)\n\t{\n\t\treturn (fatherslist[animalNumber],motherslist[animalNumber]);\n\t}\n\n\tfunction canReproduce(uint animalNumber) external returns (bool)\n\t{\n\t\treturn reproductionlist[animalNumber];\n\t}\n\n\tfunction reproductionPrice(uint animalNumber) external view returns (uint256)\n\t{\n\t\treturn reproductionpriceslist[animalNumber];\n\t}\n\n\tfunction offerForReproduction(uint animalNumber, uint price) external returns (uint256)\n\t{\n\t\trequire(msg.sender == ownerOf(animalNumber));\n\t\treproductionlist[animalNumber] = true;\n\t\treproductionpriceslist[animalNumber] = price;\n\t\treturn animalNumber;\n\t}\n\t\n}\n",
  "sourcePath": "C:\\Users\\jeanc\\OneDrive\\Bureau\\TDERC721 Cailleau Cotorobai\\contracts\\ExerciceSolution.sol",
  "compiler": {
    "name": "solc",
    "version": "0.6.2+commit.bacdbe57.Emscripten.clang"
  },
  "schemaVersion": "3.4.3",
  "updatedAt": "2021-12-09T21:05:44.298Z",
  "networkType": "ethereum",
  "devdoc": {
    "methods": {
      "approve(address,uint256)": {
        "details": "See {IERC721-approve}."
      },
      "balanceOf(address)": {
        "details": "See {IERC721-balanceOf}."
      },
      "baseURI()": {
        "details": "Returns the base URI set via {_setBaseURI}. This will be automatically added as a prefix in {tokenURI} to each token's URI, or to the token ID if no specific URI is set for that token ID."
      },
      "getApproved(uint256)": {
        "details": "See {IERC721-getApproved}."
      },
      "isApprovedForAll(address,address)": {
        "details": "See {IERC721-isApprovedForAll}."
      },
      "name()": {
        "details": "See {IERC721Metadata-name}."
      },
      "ownerOf(uint256)": {
        "details": "See {IERC721-ownerOf}."
      },
      "safeTransferFrom(address,address,uint256)": {
        "details": "See {IERC721-safeTransferFrom}."
      },
      "safeTransferFrom(address,address,uint256,bytes)": {
        "details": "See {IERC721-safeTransferFrom}."
      },
      "setApprovalForAll(address,bool)": {
        "details": "See {IERC721-setApprovalForAll}."
      },
      "supportsInterface(bytes4)": {
        "details": "See {IERC165-supportsInterface}.     * Time complexity O(1), guaranteed to always use less than 30 000 gas."
      },
      "symbol()": {
        "details": "See {IERC721Metadata-symbol}."
      },
      "tokenByIndex(uint256)": {
        "details": "See {IERC721Enumerable-tokenByIndex}."
      },
      "tokenOfOwnerByIndex(address,uint256)": {
        "details": "See {IERC721Enumerable-tokenOfOwnerByIndex}."
      },
      "tokenURI(uint256)": {
        "details": "See {IERC721Metadata-tokenURI}."
      },
      "totalSupply()": {
        "details": "See {IERC721Enumerable-totalSupply}."
      },
      "transferFrom(address,address,uint256)": {
        "details": "See {IERC721-transferFrom}."
      }
    }
  },
  "userdoc": {
    "methods": {}
  }
}